{
  "contractName": "Ordonnance",
  "abi": [
    {
      "inputs": [],
      "payable": false,
      "stateMutability": "nonpayable",
      "type": "constructor"
    },
    {
      "anonymous": false,
      "inputs": [
        {
          "indexed": false,
          "internalType": "uint256",
          "name": "id",
          "type": "uint256"
        },
        {
          "indexed": false,
          "internalType": "bool",
          "name": "completed",
          "type": "bool"
        }
      ],
      "name": "PrescriptionCompleted",
      "type": "event"
    },
    {
      "anonymous": false,
      "inputs": [
        {
          "indexed": false,
          "internalType": "uint256",
          "name": "id",
          "type": "uint256"
        },
        {
          "indexed": false,
          "internalType": "string",
          "name": "title",
          "type": "string"
        },
        {
          "indexed": false,
          "internalType": "string",
          "name": "content",
          "type": "string"
        },
        {
          "indexed": false,
          "internalType": "string",
          "name": "securitynumber",
          "type": "string"
        },
        {
          "indexed": false,
          "internalType": "bool",
          "name": "completed",
          "type": "bool"
        }
      ],
      "name": "PrescriptionCreated",
      "type": "event"
    },
    {
      "constant": true,
      "inputs": [],
      "name": "PrescriptionCount",
      "outputs": [
        {
          "internalType": "uint256",
          "name": "",
          "type": "uint256"
        }
      ],
      "payable": false,
      "stateMutability": "view",
      "type": "function"
    },
    {
      "constant": true,
      "inputs": [
        {
          "internalType": "uint256",
          "name": "",
          "type": "uint256"
        }
      ],
      "name": "Prescriptions",
      "outputs": [
        {
          "internalType": "uint256",
          "name": "id",
          "type": "uint256"
        },
        {
          "internalType": "string",
          "name": "title",
          "type": "string"
        },
        {
          "internalType": "string",
          "name": "content",
          "type": "string"
        },
        {
          "internalType": "string",
          "name": "securitynumber",
          "type": "string"
        },
        {
          "internalType": "bool",
          "name": "completed",
          "type": "bool"
        }
      ],
      "payable": false,
      "stateMutability": "view",
      "type": "function"
    },
    {
      "constant": false,
      "inputs": [
        {
          "internalType": "string",
          "name": "_title",
          "type": "string"
        },
        {
          "internalType": "string",
          "name": "_content",
          "type": "string"
        },
        {
          "internalType": "string",
          "name": "_security",
          "type": "string"
        }
      ],
      "name": "createPrescription",
      "outputs": [],
      "payable": false,
      "stateMutability": "nonpayable",
      "type": "function"
    },
    {
      "constant": false,
      "inputs": [
        {
          "internalType": "uint256",
          "name": "_id",
          "type": "uint256"
        }
      ],
      "name": "toggleCompleted",
      "outputs": [],
      "payable": false,
      "stateMutability": "nonpayable",
      "type": "function"
    },
    {
      "constant": true,
      "inputs": [],
      "name": "get",
      "outputs": [
        {
          "internalType": "string",
          "name": "",
          "type": "string"
        },
        {
          "internalType": "string",
          "name": "",
          "type": "string"
        }
      ],
      "payable": false,
      "stateMutability": "view",
      "type": "function"
    },
    {
      "constant": true,
      "inputs": [],
      "name": "getCount",
      "outputs": [
        {
          "internalType": "uint256",
          "name": "number",
          "type": "uint256"
        }
      ],
      "payable": false,
      "stateMutability": "view",
      "type": "function"
    }
  ],
  "bytecode": "0x6080604052600080553480156200001557600080fd5b50620000c86040518060400160405280600581526020017f54697472650000000000000000000000000000000000000000000000000000008152506040518060400160405280600b81526020017f436f6d6d656e74616972650000000000000000000000000000000000000000008152506040518060400160405280600381526020017f3334350000000000000000000000000000000000000000000000000000000000815250620000ce60201b60201c565b620003ef565b6040518060a00160405280600054815260200184815260200183815260200182815260200160001515815250600160008054815260200190815260200160002060008201518160000155602082015181600101908051906020019062000136929190620001f2565b50604082015181600201908051906020019062000155929190620001f2565b50606082015181600301908051906020019062000174929190620001f2565b5060808201518160040160006101000a81548160ff02191690831515021790555090505060008081548092919060010191905055507f408b4e8746ac72728c18124884927c4c71d55693366c0b977f1bdae4e81c0bf56000548484846000604051620001e595949392919062000304565b60405180910390a1505050565b828054600181600116156101000203166002900490600052602060002090601f016020900481019282601f106200023557805160ff191683800117855562000266565b8280016001018555821562000266579182015b828111156200026557825182559160200191906001019062000248565b5b50905062000275919062000279565b5090565b6200029e91905b808211156200029a57600081600090555060010162000280565b5090565b90565b620002ac8162000392565b82525050565b6000620002bf8262000376565b620002cb818562000381565b9350620002dd818560208601620003a8565b620002e881620003de565b840191505092915050565b620002fe816200039e565b82525050565b600060a0820190506200031b6000830188620002f3565b81810360208301526200032f8187620002b2565b90508181036040830152620003458186620002b2565b905081810360608301526200035b8185620002b2565b90506200036c6080830184620002a1565b9695505050505050565b600081519050919050565b600082825260208201905092915050565b60008115159050919050565b6000819050919050565b60005b83811015620003c8578082015181840152602081019050620003ab565b83811115620003d8576000848401525b50505050565b6000601f19601f8301169050919050565b610ef680620003ff6000396000f3fe608060405234801561001057600080fd5b50600436106100625760003560e01c806313da823914610067578063287995bb14610085578063455f5024146100a15780636d4ce63c146100bd57806385c55169146100dc578063a87d942c14610110575b600080fd5b61006f61012e565b60405161007c9190610c9f565b60405180910390f35b61009f600480360361009a9190810190610b18565b610134565b005b6100bb60048036036100b69190810190610baf565b610250565b005b6100c5610571565b6040516100d3929190610c68565b60405180910390f35b6100f660048036036100f19190810190610baf565b6107c5565b604051610107959493929190610d4b565b60405180910390f35b6101186109d0565b6040516101259190610c9f565b60405180910390f35b60005481565b6040518060a00160405280600054815260200184815260200183815260200182815260200160001515815250600160008054815260200190815260200160002060008201518160000155602082015181600101908051906020019061019a9291906109d9565b5060408201518160020190805190602001906101b79291906109d9565b5060608201518160030190805190602001906101d49291906109d9565b5060808201518160040160006101000a81548160ff02191690831515021790555090505060008081548092919060010191905055507f408b4e8746ac72728c18124884927c4c71d55693366c0b977f1bdae4e81c0bf56000548484846000604051610243959493929190610ce3565b60405180910390a1505050565b610258610a59565b600160008381526020019081526020016000206040518060a001604052908160008201548152602001600182018054600181600116156101000203166002900480601f0160208091040260200160405190810160405280929190818152602001828054600181600116156101000203166002900480156103195780601f106102ee57610100808354040283529160200191610319565b820191906000526020600020905b8154815290600101906020018083116102fc57829003601f168201915b50505050508152602001600282018054600181600116156101000203166002900480601f0160208091040260200160405190810160405280929190818152602001828054600181600116156101000203166002900480156103bb5780601f10610390576101008083540402835291602001916103bb565b820191906000526020600020905b81548152906001019060200180831161039e57829003601f168201915b50505050508152602001600382018054600181600116156101000203166002900480601f01602080910402602001604051908101604052809291908181526020018280546001816001161561010002031660029004801561045d5780601f106104325761010080835404028352916020019161045d565b820191906000526020600020905b81548152906001019060200180831161044057829003601f168201915b505050505081526020016004820160009054906101000a900460ff161515151581525050905080608001511581608001901515908115158152505080600160008481526020019081526020016000206000820151816000015560208201518160010190805190602001906104d29291906109d9565b5060408201518160020190805190602001906104ef9291906109d9565b50606082015181600301908051906020019061050c9291906109d9565b5060808201518160040160006101000a81548160ff0219169083151502179055509050507f0413104c545b2b462c45768424a5d036739c02188811d08950d13719804e1189828260800151604051610565929190610cba565b60405180910390a15050565b60608061057c610a59565b6001600060016000540381526020019081526020016000206040518060a001604052908160008201548152602001600182018054600181600116156101000203166002900480601f0160208091040260200160405190810160405280929190818152602001828054600181600116156101000203166002900480156106425780601f1061061757610100808354040283529160200191610642565b820191906000526020600020905b81548152906001019060200180831161062557829003601f168201915b50505050508152602001600282018054600181600116156101000203166002900480601f0160208091040260200160405190810160405280929190818152602001828054600181600116156101000203166002900480156106e45780601f106106b9576101008083540402835291602001916106e4565b820191906000526020600020905b8154815290600101906020018083116106c757829003601f168201915b50505050508152602001600382018054600181600116156101000203166002900480601f0160208091040260200160405190810160405280929190818152602001828054600181600116156101000203166002900480156107865780601f1061075b57610100808354040283529160200191610786565b820191906000526020600020905b81548152906001019060200180831161076957829003601f168201915b505050505081526020016004820160009054906101000a900460ff16151515158152505090508060200151816040015181915080905092509250509091565b6001602052806000526040600020600091509050806000015490806001018054600181600116156101000203166002900480601f0160208091040260200160405190810160405280929190818152602001828054600181600116156101000203166002900480156108775780601f1061084c57610100808354040283529160200191610877565b820191906000526020600020905b81548152906001019060200180831161085a57829003601f168201915b505050505090806002018054600181600116156101000203166002900480601f0160208091040260200160405190810160405280929190818152602001828054600181600116156101000203166002900480156109155780601f106108ea57610100808354040283529160200191610915565b820191906000526020600020905b8154815290600101906020018083116108f857829003601f168201915b505050505090806003018054600181600116156101000203166002900480601f0160208091040260200160405190810160405280929190818152602001828054600181600116156101000203166002900480156109b35780601f10610988576101008083540402835291602001916109b3565b820191906000526020600020905b81548152906001019060200180831161099657829003601f168201915b5050505050908060040160009054906101000a900460ff16905085565b60008054905090565b828054600181600116156101000203166002900490600052602060002090601f016020900481019282601f10610a1a57805160ff1916838001178555610a48565b82800160010185558215610a48579182015b82811115610a47578251825591602001919060010190610a2c565b5b509050610a559190610a8a565b5090565b6040518060a00160405280600081526020016060815260200160608152602001606081526020016000151581525090565b610aac91905b80821115610aa8576000816000905550600101610a90565b5090565b90565b600082601f830112610ac057600080fd5b8135610ad3610ace82610de0565b610db3565b91508082526020830160208301858383011115610aef57600080fd5b610afa838284610e49565b50505092915050565b600081359050610b1281610e9c565b92915050565b600080600060608486031215610b2d57600080fd5b600084013567ffffffffffffffff811115610b4757600080fd5b610b5386828701610aaf565b935050602084013567ffffffffffffffff811115610b7057600080fd5b610b7c86828701610aaf565b925050604084013567ffffffffffffffff811115610b9957600080fd5b610ba586828701610aaf565b9150509250925092565b600060208284031215610bc157600080fd5b6000610bcf84828501610b03565b91505092915050565b610be181610e33565b82525050565b6000610bf282610e17565b610bfc8185610e22565b9350610c0c818560208601610e58565b610c1581610e8b565b840191505092915050565b6000610c2b82610e0c565b610c358185610e22565b9350610c45818560208601610e58565b610c4e81610e8b565b840191505092915050565b610c6281610e3f565b82525050565b60006040820190508181036000830152610c828185610be7565b90508181036020830152610c968184610be7565b90509392505050565b6000602082019050610cb46000830184610c59565b92915050565b6000604082019050610ccf6000830185610c59565b610cdc6020830184610bd8565b9392505050565b600060a082019050610cf86000830188610c59565b8181036020830152610d0a8187610be7565b90508181036040830152610d1e8186610be7565b90508181036060830152610d328185610be7565b9050610d416080830184610bd8565b9695505050505050565b600060a082019050610d606000830188610c59565b8181036020830152610d728187610c20565b90508181036040830152610d868186610c20565b90508181036060830152610d9a8185610c20565b9050610da96080830184610bd8565b9695505050505050565b6000604051905081810181811067ffffffffffffffff82111715610dd657600080fd5b8060405250919050565b600067ffffffffffffffff821115610df757600080fd5b601f19601f8301169050602081019050919050565b600081519050919050565b600081519050919050565b600082825260208201905092915050565b60008115159050919050565b6000819050919050565b82818337600083830152505050565b60005b83811015610e76578082015181840152602081019050610e5b565b83811115610e85576000848401525b50505050565b6000601f19601f8301169050919050565b610ea581610e3f565b8114610eb057600080fd5b5056fea365627a7a72315820067df43c6ebfeb26fbc9e709e3fdba6dd864675be66f55367f80c16e9647525e6c6578706572696d656e74616cf564736f6c63430005100040",
  "source": "// SPDX-License-Identifier: MIT\r\npragma experimental ABIEncoderV2;\r\n\r\ncontract Ordonnance {\r\n  uint public PrescriptionCount = 0;\r\n\r\n  struct Prescription {\r\n    uint id;\r\n    string title;\r\n    string content;\r\n    string securitynumber;\r\n    bool completed;\r\n  }\r\n\r\n  struct Rendu {\r\n    string title;\r\n    string comment;\r\n  }\r\n\r\n  mapping(uint => Prescription) public Prescriptions;\r\n\r\n  event PrescriptionCreated(\r\n    uint id,\r\n    string title,\r\n    string content,\r\n    string securitynumber,\r\n    bool completed\r\n  );\r\n\r\n  constructor () public {\r\n    createPrescription('Titre', 'Commentaire', '345');\r\n  }\r\n\r\n  event PrescriptionCompleted(\r\n    uint id,\r\n    bool completed\r\n  );\r\n\r\n  function createPrescription(string memory _title, string memory _content, string memory _security) public {\r\n    Prescriptions[PrescriptionCount] = Prescription(PrescriptionCount, _title, _content, _security, false);\r\n    PrescriptionCount ++;\r\n    emit PrescriptionCreated(PrescriptionCount,_title,_content, _security, false);\r\n  }\r\n\r\n  function toggleCompleted(uint _id) public {\r\n    Prescription memory _Prescription = Prescriptions[_id];\r\n    _Prescription.completed = !_Prescription.completed;\r\n    Prescriptions[_id] = _Prescription;\r\n    emit PrescriptionCompleted(_id, _Prescription.completed);\r\n  }\r\n\r\n  function get() public view returns(string memory, string memory) {\r\n    Prescription memory test = Prescriptions[PrescriptionCount-1];\r\n    return (test.title,test.content);\r\n  }\r\n\r\n  function getCount() public view returns(uint number) {\r\n    return PrescriptionCount;\r\n  }\r\n}",
  "sourcePath": "C:/Users/benja/OneDrive/Bureau/test/contracts/Prescription.sol",
  "compiler": {
    "name": "solc",
    "version": "0.5.16+commit.9c3226ce.Emscripten.clang"
  },
  "schemaVersion": "3.4.1",
  "updatedAt": "2021-07-08T14:06:59.905Z",
  "networkType": "ethereum",
  "devdoc": {
    "methods": {}
  },
  "userdoc": {
    "methods": {}
  }
}