{
  "contractName": "TodoList",
  "abi": [
    {
      "constant": true,
      "inputs": [
        {
          "name": "",
          "type": "uint256"
        }
      ],
      "name": "tasks",
      "outputs": [
        {
          "name": "id",
          "type": "uint256"
        },
        {
          "name": "content",
          "type": "string"
        },
        {
          "name": "completed",
          "type": "bool"
        }
      ],
      "payable": false,
      "stateMutability": "view",
      "type": "function"
    },
    {
      "constant": true,
      "inputs": [],
      "name": "taskCount",
      "outputs": [
        {
          "name": "",
          "type": "uint256"
        }
      ],
      "payable": false,
      "stateMutability": "view",
      "type": "function"
    },
    {
      "inputs": [],
      "payable": false,
      "stateMutability": "nonpayable",
      "type": "constructor"
    },
    {
      "anonymous": false,
      "inputs": [
        {
          "indexed": false,
          "name": "id",
          "type": "uint256"
        },
        {
          "indexed": false,
          "name": "content",
          "type": "string"
        },
        {
          "indexed": false,
          "name": "completed",
          "type": "bool"
        }
      ],
      "name": "TaskCreated",
      "type": "event"
    },
    {
      "anonymous": false,
      "inputs": [
        {
          "indexed": false,
          "name": "id",
          "type": "uint256"
        },
        {
          "indexed": false,
          "name": "completed",
          "type": "bool"
        }
      ],
      "name": "TaskCompleted",
      "type": "event"
    },
    {
      "constant": false,
      "inputs": [
        {
          "name": "_content",
          "type": "string"
        }
      ],
      "name": "createTask",
      "outputs": [],
      "payable": false,
      "stateMutability": "nonpayable",
      "type": "function"
    },
    {
      "constant": false,
      "inputs": [
        {
          "name": "_id",
          "type": "uint256"
        }
      ],
      "name": "toggleCompleted",
      "outputs": [],
      "payable": false,
      "stateMutability": "nonpayable",
      "type": "function"
    },
    {
      "constant": true,
      "inputs": [],
      "name": "get",
      "outputs": [
        {
          "name": "",
          "type": "string"
        }
      ],
      "payable": false,
      "stateMutability": "view",
      "type": "function"
    }
  ],
  "bytecode": "0x60806040526000805534801561001457600080fd5b5060408051808201909152600f81527f6168206269656e20657373617965720000000000000000000000000000000000602082015261005b90640100000000610060810204565b61007e565b60008054600101905561007b81640100000000610060810204565b50565b6106d88061008d6000396000f3fe60806040526004361061006c5763ffffffff7c0100000000000000000000000000000000000000000000000000000000600035041663111002aa8114610071578063455f5024146101265780636d4ce63c146101505780638d977672146101da578063b6cb58a51461028e575b600080fd5b34801561007d57600080fd5b506101246004803603602081101561009457600080fd5b8101906020810181356401000000008111156100af57600080fd5b8201836020820111156100c157600080fd5b803590602001918460018302840111640100000000831117156100e357600080fd5b91908080601f0160208091040260200160405190810160405280939291908181526020018383808284376000920191909152509295506102b5945050505050565b005b34801561013257600080fd5b506101246004803603602081101561014957600080fd5b50356102ca565b34801561015c57600080fd5b5061016561042a565b6040805160208082528351818301528351919283929083019185019080838360005b8381101561019f578181015183820152602001610187565b50505050905090810190601f1680156101cc5780820380516001836020036101000a031916815260200191505b509250505060405180910390f35b3480156101e657600080fd5b50610204600480360360208110156101fd57600080fd5b503561053b565b604051808481526020018060200183151515158152602001828103825284818151815260200191508051906020019080838360005b83811015610251578181015183820152602001610239565b50505050905090810190601f16801561027e5780820380516001836020036101000a031916815260200191505b5094505050505060405180910390f35b34801561029a57600080fd5b506102a36105ea565b60408051918252519081900360200190f35b6000805460010190556102c7816102b5565b50565b6102d26105f0565b60008281526001602081815260409283902083516060810185528154815281840180548651600296821615610100026000190190911695909504601f8101859004850286018501909652858552909491938584019390929083018282801561037b5780601f106103505761010080835404028352916020019161037b565b820191906000526020600020905b81548152906001019060200180831161035e57829003601f168201915b50505091835250506002919091015460ff161515602091820152604080830180511590526000858152600180845291902083518155838301518051949550859491936103cc93850192910190610614565b50604091820151600291909101805460ff1916911515919091179055818101518151848152901515602082015281517fe21fa966ca5cd02748c0752352d18c48165e61cb55b4c29cccf924b5a95fcff1929181900390910190a15050565b60606104346105f0565b6000805260016020818152604080516060810182527fa6eef7e35abe7026729641147f7915573c7e97b47efa546f5f6e3230263bcb49805482527fa6eef7e35abe7026729641147f7915573c7e97b47efa546f5f6e3230263bcb4a80548451600297821615610100026000190190911696909604601f81018690048602870186019094528386529194909385810193919291908301828280156105185780601f106104ed57610100808354040283529160200191610518565b820191906000526020600020905b8154815290600101906020018083116104fb57829003601f168201915b50505091835250506002919091015460ff16151560209182015201519150505b90565b600160208181526000928352604092839020805481840180548651600296821615610100026000190190911695909504601f810185900485028601850190965285855290949193929091908301828280156105d75780601f106105ac576101008083540402835291602001916105d7565b820191906000526020600020905b8154815290600101906020018083116105ba57829003601f168201915b5050506002909301549192505060ff1683565b60005481565b60606040519081016040528060008152602001606081526020016000151581525090565b828054600181600116156101000203166002900490600052602060002090601f016020900481019282601f1061065557805160ff1916838001178555610682565b82800160010185558215610682579182015b82811115610682578251825591602001919060010190610667565b5061068e929150610692565b5090565b61053891905b8082111561068e576000815560010161069856fea165627a7a7230582018c1c1c9f536add8dc9c0cc60dd370bc45aadbeeb285a2bfca0223043fb143100029",
  "source": "// SPDX-License-Identifier: MIT\r\npragma solidity >=0.4.22 <0.9.0;\r\n\r\ncontract TodoList {\r\n  uint public taskCount = 0;\r\n\r\n  struct Task {\r\n    uint id;\r\n    string content;\r\n    bool completed;\r\n  }\r\n\r\n  mapping(uint => Task) public tasks;\r\n\r\n  event TaskCreated(\r\n    uint id,\r\n    string content,\r\n    bool completed\r\n  );\r\n\r\n  event TaskCompleted(\r\n    uint id,\r\n    bool completed\r\n  );\r\n\r\n  constructor() public {\r\n    createTask(\"ah bien essayer\");\r\n  }\r\n\r\n  function createTask(string memory _content) public {\r\n    taskCount ++;\r\n    createTask(_content);\r\n  }\r\n\r\n  function toggleCompleted(uint _id) public {\r\n    Task memory _task = tasks[_id];\r\n    _task.completed = !_task.completed;\r\n    tasks[_id] = _task;\r\n    emit TaskCompleted(_id, _task.completed);\r\n  }\r\n\r\n  function get() public view returns(string memory) {\r\n        Task memory _task = tasks[0];\r\n        return _task.content;\r\n    }\r\n\r\n}\r\n",
  "sourcePath": "C:/Users/benja/OneDrive/mastercamp/contracts/TodoList.sol",
  "compiler": {
    "name": "solc",
    "version": "0.5.0+commit.1d4f565a.Emscripten.clang"
  },
  "schemaVersion": "3.0.1",
  "updatedAt": "2021-07-05T18:25:02.408Z",
  "devdoc": {
    "methods": {}
  },
  "userdoc": {
    "methods": {}
  }
}